{
  "_format": "hh-sol-artifact-1",
  "contractName": "DaoWorkstream",
  "sourceName": "contracts/DaoPayTreasury.sol",
  "abi": [
    {
      "inputs": [
        {
          "internalType": "string",
          "name": "_workstreamName",
          "type": "string"
        },
        {
          "internalType": "address",
          "name": "_daoOwner",
          "type": "address"
        },
        {
          "internalType": "address",
          "name": "_workstreamOwner",
          "type": "address"
        },
        {
          "internalType": "address payable",
          "name": "_daoToken",
          "type": "address"
        }
      ],
      "stateMutability": "nonpayable",
      "type": "constructor"
    },
    {
      "anonymous": false,
      "inputs": [
        {
          "indexed": false,
          "internalType": "string",
          "name": "str",
          "type": "string"
        },
        {
          "indexed": false,
          "internalType": "uint256",
          "name": "value",
          "type": "uint256"
        }
      ],
      "name": "ApprovedRequest",
      "type": "event"
    },
    {
      "anonymous": false,
      "inputs": [
        {
          "indexed": false,
          "internalType": "string",
          "name": "str",
          "type": "string"
        },
        {
          "indexed": false,
          "internalType": "uint256",
          "name": "value",
          "type": "uint256"
        }
      ],
      "name": "NewRequest",
      "type": "event"
    },
    {
      "anonymous": false,
      "inputs": [
        {
          "indexed": false,
          "internalType": "string",
          "name": "str",
          "type": "string"
        },
        {
          "indexed": false,
          "internalType": "uint256",
          "name": "value",
          "type": "uint256"
        }
      ],
      "name": "PaidRequest",
      "type": "event"
    },
    {
      "inputs": [
        {
          "internalType": "uint256",
          "name": "index",
          "type": "uint256"
        }
      ],
      "name": "approveRequest",
      "outputs": [],
      "stateMutability": "nonpayable",
      "type": "function"
    },
    {
      "inputs": [],
      "name": "balance",
      "outputs": [
        {
          "internalType": "uint256",
          "name": "",
          "type": "uint256"
        }
      ],
      "stateMutability": "view",
      "type": "function"
    },
    {
      "inputs": [
        {
          "internalType": "string",
          "name": "description",
          "type": "string"
        },
        {
          "internalType": "uint256",
          "name": "value",
          "type": "uint256"
        },
        {
          "internalType": "address payable",
          "name": "recipient",
          "type": "address"
        }
      ],
      "name": "createRequest",
      "outputs": [],
      "stateMutability": "nonpayable",
      "type": "function"
    },
    {
      "inputs": [],
      "name": "daoToken",
      "outputs": [
        {
          "internalType": "address payable",
          "name": "",
          "type": "address"
        }
      ],
      "stateMutability": "view",
      "type": "function"
    },
    {
      "inputs": [
        {
          "internalType": "address payable",
          "name": "to",
          "type": "address"
        },
        {
          "internalType": "uint256",
          "name": "amount",
          "type": "uint256"
        }
      ],
      "name": "execPayment",
      "outputs": [],
      "stateMutability": "nonpayable",
      "type": "function"
    },
    {
      "inputs": [],
      "name": "getDaoOwner",
      "outputs": [
        {
          "internalType": "address",
          "name": "",
          "type": "address"
        }
      ],
      "stateMutability": "view",
      "type": "function"
    },
    {
      "inputs": [
        {
          "internalType": "uint256",
          "name": "i",
          "type": "uint256"
        }
      ],
      "name": "getRequest",
      "outputs": [
        {
          "internalType": "uint256",
          "name": "id",
          "type": "uint256"
        },
        {
          "internalType": "string",
          "name": "",
          "type": "string"
        },
        {
          "internalType": "address",
          "name": "",
          "type": "address"
        },
        {
          "internalType": "uint256",
          "name": "",
          "type": "uint256"
        },
        {
          "internalType": "bool",
          "name": "",
          "type": "bool"
        },
        {
          "internalType": "bool",
          "name": "",
          "type": "bool"
        }
      ],
      "stateMutability": "view",
      "type": "function"
    },
    {
      "inputs": [],
      "name": "getRequestLength",
      "outputs": [
        {
          "internalType": "uint256",
          "name": "",
          "type": "uint256"
        }
      ],
      "stateMutability": "view",
      "type": "function"
    },
    {
      "inputs": [
        {
          "internalType": "uint256",
          "name": "i",
          "type": "uint256"
        }
      ],
      "name": "getRequestRecipient",
      "outputs": [
        {
          "internalType": "address",
          "name": "",
          "type": "address"
        }
      ],
      "stateMutability": "view",
      "type": "function"
    },
    {
      "inputs": [
        {
          "internalType": "uint256",
          "name": "i",
          "type": "uint256"
        }
      ],
      "name": "getRequestValue",
      "outputs": [
        {
          "internalType": "uint256",
          "name": "",
          "type": "uint256"
        }
      ],
      "stateMutability": "view",
      "type": "function"
    },
    {
      "inputs": [],
      "name": "getSummary",
      "outputs": [
        {
          "internalType": "string",
          "name": "",
          "type": "string"
        },
        {
          "internalType": "address",
          "name": "",
          "type": "address"
        },
        {
          "internalType": "uint256",
          "name": "",
          "type": "uint256"
        },
        {
          "internalType": "uint256",
          "name": "",
          "type": "uint256"
        },
        {
          "internalType": "uint256",
          "name": "",
          "type": "uint256"
        },
        {
          "internalType": "uint256",
          "name": "",
          "type": "uint256"
        }
      ],
      "stateMutability": "view",
      "type": "function"
    },
    {
      "inputs": [],
      "name": "getWorkstreamName",
      "outputs": [
        {
          "internalType": "string",
          "name": "",
          "type": "string"
        }
      ],
      "stateMutability": "view",
      "type": "function"
    },
    {
      "inputs": [],
      "name": "getWorkstreamOwner",
      "outputs": [
        {
          "internalType": "address",
          "name": "",
          "type": "address"
        }
      ],
      "stateMutability": "view",
      "type": "function"
    },
    {
      "inputs": [
        {
          "internalType": "uint256",
          "name": "index",
          "type": "uint256"
        }
      ],
      "name": "payExecRequest",
      "outputs": [
        {
          "internalType": "bool",
          "name": "",
          "type": "bool"
        }
      ],
      "stateMutability": "nonpayable",
      "type": "function"
    },
    {
      "inputs": [
        {
          "internalType": "uint256",
          "name": "index",
          "type": "uint256"
        }
      ],
      "name": "payRequest",
      "outputs": [
        {
          "internalType": "bool",
          "name": "",
          "type": "bool"
        }
      ],
      "stateMutability": "nonpayable",
      "type": "function"
    },
    {
      "inputs": [],
      "name": "pendingBalance",
      "outputs": [
        {
          "internalType": "uint256",
          "name": "",
          "type": "uint256"
        }
      ],
      "stateMutability": "view",
      "type": "function"
    },
    {
      "inputs": [],
      "name": "pendingRequestCount",
      "outputs": [
        {
          "internalType": "uint256",
          "name": "",
          "type": "uint256"
        }
      ],
      "stateMutability": "view",
      "type": "function"
    },
    {
      "inputs": [
        {
          "internalType": "uint256",
          "name": "",
          "type": "uint256"
        }
      ],
      "name": "requests",
      "outputs": [
        {
          "internalType": "uint256",
          "name": "id",
          "type": "uint256"
        },
        {
          "internalType": "string",
          "name": "description",
          "type": "string"
        },
        {
          "internalType": "uint256",
          "name": "value",
          "type": "uint256"
        },
        {
          "internalType": "address payable",
          "name": "recipient",
          "type": "address"
        },
        {
          "internalType": "bool",
          "name": "approved",
          "type": "bool"
        },
        {
          "internalType": "bool",
          "name": "paid",
          "type": "bool"
        }
      ],
      "stateMutability": "view",
      "type": "function"
    },
    {
      "inputs": [],
      "name": "totalBalance",
      "outputs": [
        {
          "internalType": "uint256",
          "name": "",
          "type": "uint256"
        }
      ],
      "stateMutability": "view",
      "type": "function"
    },
    {
      "inputs": [],
      "name": "workstreamName",
      "outputs": [
        {
          "internalType": "string",
          "name": "",
          "type": "string"
        }
      ],
      "stateMutability": "view",
      "type": "function"
    }
  ],
  "bytecode": "0x60806040523480156200001157600080fd5b50604051620024513803806200245183398181016040528101906200003791906200026c565b82600160006101000a81548173ffffffffffffffffffffffffffffffffffffffff021916908373ffffffffffffffffffffffffffffffffffffffff1602179055508360029080519060200190620000909291906200011c565b5080600360006101000a81548173ffffffffffffffffffffffffffffffffffffffff021916908373ffffffffffffffffffffffffffffffffffffffff160217905550816000806101000a81548173ffffffffffffffffffffffffffffffffffffffff021916908373ffffffffffffffffffffffffffffffffffffffff160217905550505050506200049e565b8280546200012a90620003d6565b90600052602060002090601f0160209004810192826200014e57600085556200019a565b82601f106200016957805160ff19168380011785556200019a565b828001600101855582156200019a579182015b82811115620001995782518255916020019190600101906200017c565b5b509050620001a99190620001ad565b5090565b5b80821115620001c8576000816000905550600101620001ae565b5090565b6000620001e3620001dd8462000325565b620002f1565b905082815260208101848484011115620001fc57600080fd5b62000209848285620003a0565b509392505050565b60008151905062000222816200046a565b92915050565b600081519050620002398162000484565b92915050565b600082601f8301126200025157600080fd5b815162000263848260208601620001cc565b91505092915050565b600080600080608085870312156200028357600080fd5b600085015167ffffffffffffffff8111156200029e57600080fd5b620002ac878288016200023f565b9450506020620002bf8782880162000211565b9350506040620002d28782880162000211565b9250506060620002e58782880162000228565b91505092959194509250565b6000604051905081810181811067ffffffffffffffff821117156200031b576200031a6200043b565b5b8060405250919050565b600067ffffffffffffffff8211156200034357620003426200043b565b5b601f19601f8301169050602081019050919050565b6000620003658262000380565b9050919050565b6000620003798262000380565b9050919050565b600073ffffffffffffffffffffffffffffffffffffffff82169050919050565b60005b83811015620003c0578082015181840152602081019050620003a3565b83811115620003d0576000848401525b50505050565b60006002820490506001821680620003ef57607f821691505b602082108114156200040657620004056200040c565b5b50919050565b7f4e487b7100000000000000000000000000000000000000000000000000000000600052602260045260246000fd5b7f4e487b7100000000000000000000000000000000000000000000000000000000600052604160045260246000fd5b620004758162000358565b81146200048157600080fd5b50565b6200048f816200036c565b81146200049b57600080fd5b50565b611fa380620004ae6000396000f3fe608060405234801561001057600080fd5b506004361061012c5760003560e01c806363d4dd3b116100ad578063c11c4cfc11610071578063c11c4cfc14610355578063c58343ef14610373578063d7d1bbdb146103a8578063dd71e3ac146103c4578063e0abba57146103e05761012c565b806363d4dd3b1461029857806381d12c58146102c85780638a9cfd55146102fd578063ad7a672f14610319578063b69ef8a8146103375761012c565b80635160ba98116100f45780635160ba98146101cc578063519198ca146101fc57806353bf1de01461022c57806357b4d18e1461024a5780635b8575a9146102685761012c565b80632a881d6414610131578063319befc71461014f57806340059bd71461016d5780634051ddac1461018b5780634914b030146101ae575b600080fd5b6101396103fe565b60405161014691906119cd565b60405180910390f35b610157610428565b60405161016491906119cd565b60405180910390f35b610175610451565b6040516101829190611a55565b60405180910390f35b6101936104df565b6040516101a596959493929190611a77565b60405180910390f35b6101b66105bb565b6040516101c391906119e8565b60405180910390f35b6101e660048036038101906101e191906117d1565b6105e1565b6040516101f39190611a3a565b60405180910390f35b610216600480360381019061021191906117d1565b6108e3565b6040516102239190611b7f565b60405180910390f35b610234610938565b6040516102419190611b7f565b60405180910390f35b610252610945565b60405161025f9190611b7f565b60405180910390f35b610282600480360381019061027d91906117d1565b61094b565b60405161028f91906119cd565b60405180910390f35b6102b260048036038101906102ad91906117d1565b6109c0565b6040516102bf9190611a3a565b60405180910390f35b6102e260048036038101906102dd91906117d1565b610c02565b6040516102f496959493929190611c02565b60405180910390f35b6103176004803603810190610312919061176a565b610d10565b005b610321610ed3565b60405161032e9190611b7f565b60405180910390f35b61033f610ed9565b60405161034c9190611b7f565b60405180910390f35b61035d610fad565b60405161036a9190611a55565b60405180910390f35b61038d600480360381019061038891906117d1565b61103f565b60405161039f96959493929190611b9a565b60405180910390f35b6103c260048036038101906103bd91906117d1565b6112eb565b005b6103de60048036038101906103d99190611705565b6114c8565b005b6103e86115a0565b6040516103f59190611b7f565b60405180910390f35b6000600160009054906101000a900473ffffffffffffffffffffffffffffffffffffffff16905090565b60008060009054906101000a900473ffffffffffffffffffffffffffffffffffffffff16905090565b6002805461045e90611e58565b80601f016020809104026020016040519081016040528092919081815260200182805461048a90611e58565b80156104d75780601f106104ac576101008083540402835291602001916104d7565b820191906000526020600020905b8154815290600101906020018083116104ba57829003601f168201915b505050505081565b60606000806000806000600260008054906101000a900473ffffffffffffffffffffffffffffffffffffffff1660075460048054905060065460055485805461052790611e58565b80601f016020809104026020016040519081016040528092919081815260200182805461055390611e58565b80156105a05780601f10610575576101008083540402835291602001916105a0565b820191906000526020600020905b81548152906001019060200180831161058357829003601f168201915b50505050509550955095509550955095509550909192939495565b600360009054906101000a900473ffffffffffffffffffffffffffffffffffffffff1681565b60006004828154811061061d577f4e487b7100000000000000000000000000000000000000000000000000000000600052603260045260246000fd5b906000526020600020906004020160030160149054906101000a900460ff166001151581151514610683576040517f08c379a000000000000000000000000000000000000000000000000000000000815260040161067a90611b3f565b60405180910390fd5b6001600484815481106106bf577f4e487b7100000000000000000000000000000000000000000000000000000000600052603260045260246000fd5b906000526020600020906004020160030160156101000a81548160ff0219169083151502179055506107a760048481548110610724577f4e487b7100000000000000000000000000000000000000000000000000000000600052603260045260246000fd5b906000526020600020906004020160030160009054906101000a900473ffffffffffffffffffffffffffffffffffffffff1660048581548110610790577f4e487b7100000000000000000000000000000000000000000000000000000000600052603260045260246000fd5b9060005260206000209060040201600201546114c8565b600483815481106107e1577f4e487b7100000000000000000000000000000000000000000000000000000000600052603260045260246000fd5b906000526020600020906004020160020154600660008282546108049190611d52565b925050819055507fe5cb0de7ffb63d788eceaabfe89c9e0f284c05dcfc5a672837508cc8b8da9c1d60048481548110610866577f4e487b7100000000000000000000000000000000000000000000000000000000600052603260045260246000fd5b9060005260206000209060040201600101600485815481106108b1577f4e487b7100000000000000000000000000000000000000000000000000000000600052603260045260246000fd5b9060005260206000209060040201600201546040516108d1929190611b0f565b60405180910390a16001915050919050565b60006004828154811061091f577f4e487b7100000000000000000000000000000000000000000000000000000000600052603260045260246000fd5b9060005260206000209060040201600201549050919050565b6000600480549050905090565b60065481565b600060048281548110610987577f4e487b7100000000000000000000000000000000000000000000000000000000600052603260045260246000fd5b906000526020600020906004020160030160009054906101000a900473ffffffffffffffffffffffffffffffffffffffff169050919050565b6000600482815481106109fc577f4e487b7100000000000000000000000000000000000000000000000000000000600052603260045260246000fd5b906000526020600020906004020160030160149054906101000a900460ff166001151581151514610a62576040517f08c379a0000000000000000000000000000000000000000000000000000000008152600401610a5990611b3f565b60405180910390fd5b600160048481548110610a9e577f4e487b7100000000000000000000000000000000000000000000000000000000600052603260045260246000fd5b906000526020600020906004020160030160156101000a81548160ff02191690831515021790555060048381548110610b00577f4e487b7100000000000000000000000000000000000000000000000000000000600052603260045260246000fd5b90600052602060002090600402016002015460066000828254610b239190611d52565b925050819055507fe5cb0de7ffb63d788eceaabfe89c9e0f284c05dcfc5a672837508cc8b8da9c1d60048481548110610b85577f4e487b7100000000000000000000000000000000000000000000000000000000600052603260045260246000fd5b906000526020600020906004020160010160048581548110610bd0577f4e487b7100000000000000000000000000000000000000000000000000000000600052603260045260246000fd5b906000526020600020906004020160020154604051610bf0929190611b0f565b60405180910390a16001915050919050565b60048181548110610c1257600080fd5b9060005260206000209060040201600091509050806000015490806001018054610c3b90611e58565b80601f0160208091040260200160405190810160405280929190818152602001828054610c6790611e58565b8015610cb45780601f10610c8957610100808354040283529160200191610cb4565b820191906000526020600020905b815481529060010190602001808311610c9757829003601f168201915b5050505050908060020154908060030160009054906101000a900473ffffffffffffffffffffffffffffffffffffffff16908060030160149054906101000a900460ff16908060030160159054906101000a900460ff16905086565b60006040518060c0016040528060048054905081526020018581526020018481526020018373ffffffffffffffffffffffffffffffffffffffff1681526020016000151581526020016000151581525090508260056000828254610d749190611cfc565b925050819055508260066000828254610d8d9190611cfc565b92505081905550600160076000828254610da79190611cfc565b925050819055506004819080600181540180825580915050600190039060005260206000209060040201600090919091909150600082015181600001556020820151816001019080519060200190610e009291906115a6565b506040820151816002015560608201518160030160006101000a81548173ffffffffffffffffffffffffffffffffffffffff021916908373ffffffffffffffffffffffffffffffffffffffff16021790555060808201518160030160146101000a81548160ff02191690831515021790555060a08201518160030160156101000a81548160ff02191690831515021790555050507f83d9cf902acb7b02aa62f18822d92bb65d3ecf930d0e3b98c6575a0e8dc542948484604051610ec5929190611adf565b60405180910390a150505050565b60055481565b6000600360009054906101000a900473ffffffffffffffffffffffffffffffffffffffff1673ffffffffffffffffffffffffffffffffffffffff166370a08231600160009054906101000a900473ffffffffffffffffffffffffffffffffffffffff166040518263ffffffff1660e01b8152600401610f5891906119cd565b60206040518083038186803b158015610f7057600080fd5b505afa158015610f84573d6000803e3d6000fd5b505050506040513d601f19601f82011682018060405250810190610fa891906117fa565b905090565b606060028054610fbc90611e58565b80601f0160208091040260200160405190810160405280929190818152602001828054610fe890611e58565b80156110355780601f1061100a57610100808354040283529160200191611035565b820191906000526020600020905b81548152906001019060200180831161101857829003601f168201915b5050505050905090565b6000606060008060008060048781548110611083577f4e487b7100000000000000000000000000000000000000000000000000000000600052603260045260246000fd5b906000526020600020906004020160000154600488815481106110cf577f4e487b7100000000000000000000000000000000000000000000000000000000600052603260045260246000fd5b90600052602060002090600402016001016004898154811061111a577f4e487b7100000000000000000000000000000000000000000000000000000000600052603260045260246000fd5b906000526020600020906004020160030160009054906101000a900473ffffffffffffffffffffffffffffffffffffffff1660048a81548110611186577f4e487b7100000000000000000000000000000000000000000000000000000000600052603260045260246000fd5b90600052602060002090600402016002015460048b815481106111d2577f4e487b7100000000000000000000000000000000000000000000000000000000600052603260045260246000fd5b906000526020600020906004020160030160149054906101000a900460ff1660048c8154811061122b577f4e487b7100000000000000000000000000000000000000000000000000000000600052603260045260246000fd5b906000526020600020906004020160030160159054906101000a900460ff1684805461125690611e58565b80601f016020809104026020016040519081016040528092919081815260200182805461128290611e58565b80156112cf5780601f106112a4576101008083540402835291602001916112cf565b820191906000526020600020905b8154815290600101906020018083116112b257829003601f168201915b5050505050945095509550955095509550955091939550919395565b60008054906101000a900473ffffffffffffffffffffffffffffffffffffffff1673ffffffffffffffffffffffffffffffffffffffff163373ffffffffffffffffffffffffffffffffffffffff1614611379576040517f08c379a000000000000000000000000000000000000000000000000000000000815260040161137090611b5f565b60405180910390fd5b6001600482815481106113b5577f4e487b7100000000000000000000000000000000000000000000000000000000600052603260045260246000fd5b906000526020600020906004020160030160146101000a81548160ff0219169083151502179055506001600760008282546113f09190611d52565b925050819055507f692b1741b55de15ddb2f2d0705372b4c5036e08678ecc135972ecfbd83bd453b60048281548110611452577f4e487b7100000000000000000000000000000000000000000000000000000000600052603260045260246000fd5b90600052602060002090600402016001016004838154811061149d577f4e487b7100000000000000000000000000000000000000000000000000000000600052603260045260246000fd5b9060005260206000209060040201600201546040516114bd929190611b0f565b60405180910390a150565b600360009054906101000a900473ffffffffffffffffffffffffffffffffffffffff1673ffffffffffffffffffffffffffffffffffffffff166323b872dd600160009054906101000a900473ffffffffffffffffffffffffffffffffffffffff1684846040518463ffffffff1660e01b815260040161154993929190611a03565b602060405180830381600087803b15801561156357600080fd5b505af1158015611577573d6000803e3d6000fd5b505050506040513d601f19601f8201168201806040525081019061159b9190611741565b505050565b60075481565b8280546115b290611e58565b90600052602060002090601f0160209004810192826115d4576000855561161b565b82601f106115ed57805160ff191683800117855561161b565b8280016001018555821561161b579182015b8281111561161a5782518255916020019190600101906115ff565b5b509050611628919061162c565b5090565b5b8082111561164557600081600090555060010161162d565b5090565b600061165c61165784611c9b565b611c6a565b90508281526020810184848401111561167457600080fd5b61167f848285611e16565b509392505050565b60008135905061169681611f28565b92915050565b6000815190506116ab81611f3f565b92915050565b600082601f8301126116c257600080fd5b81356116d2848260208601611649565b91505092915050565b6000813590506116ea81611f56565b92915050565b6000815190506116ff81611f56565b92915050565b6000806040838503121561171857600080fd5b600061172685828601611687565b9250506020611737858286016116db565b9150509250929050565b60006020828403121561175357600080fd5b60006117618482850161169c565b91505092915050565b60008060006060848603121561177f57600080fd5b600084013567ffffffffffffffff81111561179957600080fd5b6117a5868287016116b1565b93505060206117b6868287016116db565b92505060406117c786828701611687565b9150509250925092565b6000602082840312156117e357600080fd5b60006117f1848285016116db565b91505092915050565b60006020828403121561180c57600080fd5b600061181a848285016116f0565b91505092915050565b61182c81611de0565b82525050565b61183b81611d98565b82525050565b61184a81611d86565b82525050565b61185981611daa565b82525050565b600061186a82611ce0565b6118748185611ceb565b9350611884818560208601611e25565b61188d81611f17565b840191505092915050565b600081546118a581611e58565b6118af8186611ceb565b945060018216600081146118ca57600181146118dc5761190f565b60ff198316865260208601935061190f565b6118e585611ccb565b60005b83811015611907578154818901526001820191506020810190506118e8565b808801955050505b50505092915050565b6000611925600c83611ceb565b91507f4e4f5420617070726f76656400000000000000000000000000000000000000006000830152602082019050919050565b6000611965602b83611ceb565b91507f6f6e6c7920776f726b73747265616d6f776e65722063616e20617574686f726960008301527f7a6520617070726f76616c0000000000000000000000000000000000000000006020830152604082019050919050565b6119c781611dd6565b82525050565b60006020820190506119e26000830184611841565b92915050565b60006020820190506119fd6000830184611832565b92915050565b6000606082019050611a186000830186611841565b611a256020830185611823565b611a3260408301846119be565b949350505050565b6000602082019050611a4f6000830184611850565b92915050565b60006020820190508181036000830152611a6f818461185f565b905092915050565b600060c0820190508181036000830152611a91818961185f565b9050611aa06020830188611841565b611aad60408301876119be565b611aba60608301866119be565b611ac760808301856119be565b611ad460a08301846119be565b979650505050505050565b60006040820190508181036000830152611af9818561185f565b9050611b0860208301846119be565b9392505050565b60006040820190508181036000830152611b298185611898565b9050611b3860208301846119be565b9392505050565b60006020820190508181036000830152611b5881611918565b9050919050565b60006020820190508181036000830152611b7881611958565b9050919050565b6000602082019050611b9460008301846119be565b92915050565b600060c082019050611baf60008301896119be565b8181036020830152611bc1818861185f565b9050611bd06040830187611841565b611bdd60608301866119be565b611bea6080830185611850565b611bf760a0830184611850565b979650505050505050565b600060c082019050611c1760008301896119be565b8181036020830152611c29818861185f565b9050611c3860408301876119be565b611c456060830186611832565b611c526080830185611850565b611c5f60a0830184611850565b979650505050505050565b6000604051905081810181811067ffffffffffffffff82111715611c9157611c90611ee8565b5b8060405250919050565b600067ffffffffffffffff821115611cb657611cb5611ee8565b5b601f19601f8301169050602081019050919050565b60008190508160005260206000209050919050565b600081519050919050565b600082825260208201905092915050565b6000611d0782611dd6565b9150611d1283611dd6565b9250827fffffffffffffffffffffffffffffffffffffffffffffffffffffffffffffffff03821115611d4757611d46611e8a565b5b828201905092915050565b6000611d5d82611dd6565b9150611d6883611dd6565b925082821015611d7b57611d7a611e8a565b5b828203905092915050565b6000611d9182611db6565b9050919050565b6000611da382611db6565b9050919050565b60008115159050919050565b600073ffffffffffffffffffffffffffffffffffffffff82169050919050565b6000819050919050565b6000611deb82611df2565b9050919050565b6000611dfd82611e04565b9050919050565b6000611e0f82611db6565b9050919050565b82818337600083830152505050565b60005b83811015611e43578082015181840152602081019050611e28565b83811115611e52576000848401525b50505050565b60006002820490506001821680611e7057607f821691505b60208210811415611e8457611e83611eb9565b5b50919050565b7f4e487b7100000000000000000000000000000000000000000000000000000000600052601160045260246000fd5b7f4e487b7100000000000000000000000000000000000000000000000000000000600052602260045260246000fd5b7f4e487b7100000000000000000000000000000000000000000000000000000000600052604160045260246000fd5b6000601f19601f8301169050919050565b611f3181611d98565b8114611f3c57600080fd5b50565b611f4881611daa565b8114611f5357600080fd5b50565b611f5f81611dd6565b8114611f6a57600080fd5b5056fea26469706673582212206541486166a0348e49a82c4200427fdb5de723d9fbce1c4f5582adfabcb84f5064736f6c63430008000033",
  "linkReferences": {},
  "deployedLinkReferences": {}
}